S00D0000426C696E6B2E7372656327
S113000023C032C031C030C02FC04CC02DC02CC062
S11300102BC02AC029C028C027C026C025C0010281
S11300200000040000000000010204081020200465
S11300301008020202020202020202020000000090
S1130040380000000000370011241FBECFE5D2E0C5
S1130050DEBFCDBF20E0A0E6B0E001C01D92A9360E
S1130060B207E1F715D067C1CBCF61E081E0F8C0FA
S113007061E081E031D168EE73E080E090E082D00D
S113008060E081E029D168EE73E080E090E07AC01E
S1130090B2D0E2D0EADFC0E0D0E0EADF2097E9F3B3
S11300A0AFDFFBCF1F920F920FB60F9211242F9345
S11300B03F938F939F93AF93BF93809161009091EF
S11300C06200A0916300B09164003091600026E06A
S11300D0230F2D3720F40296A11DB11D05C029E878
S11300E0230F0396A11DB11D20936000809361002E
S11300F090936200A0936300B093640080916500C4
S113010090916600A0916700B09168000196A11DCE
S1130110B11D8093650090936600A0936700B0932F
S11301206800BF91AF919F918F913F912F910F9054
S11301300FBE0F901F9018953FB7F89480916500FB
S113014090916600A0916700B091680022B708B64C
S113015001FE05C02F3F19F00196A11DB11D3FBF3F
S1130160BA2FA92F982F8827820F911DA11DB11D89
S1130170BC01CD0143E0660F771F881F991F4A9584
S1130180D1F708958F929F92AF92BF92CF92DF9250
S1130190EF92FF926B017C01CFDF4B015C01C11434
S11301A0D104E104F104F1F0C5D0C6DFDC01CB01D8
S11301B088199909AA09BB09883E9340A105B1058C
S11301C070F321E0C21AD108E108F10888EE880E24
S11301D083E0981EA11CB11CC114D104E104F104F4
S11301E021F7DDCFFF90EF90DF90CF90BF90AF90DD
S11301F09F908F90089578948AB582608ABD8AB55D
S113020081608ABD83B7826083BF83B7816083BF07
S113021089B7826089BF80B7826080BF80B7816000
S113022080BF329A319A3098379A0895823081F09B
S113023018F4813051F00895833019F0843009F0B6
S113024008958CB58F7D8CBD08958AB58F7702C0D3
S11302508AB58F7D8ABD08958CB580648CBD089560
S1130260CF93DF9390E0FC01E85DFF4F2491FC0104
S1130270EE5CFF4F8491882361F190E0880F991F11
S1130280FC01EE5BFF4FC591D491FC01E45CFF4F90
S1130290A591B491611109C09FB7F8948881209504
S11302A082238883EC912E230BC0623061F49FB7C4
S11302B0F8948881322F309583238883EC912E2BF8
S11302C02C939FBF06C08FB7F894E8812E2B288308
S11302D08FBFDF91CF9108951F93CF93DF93282F82
S11302E030E0F901E25EFF4F8491F901E85DFF4FD0
S11302F0D491F901EE5CFF4FC491CC23B9F0162FD1
S1130300811194DFEC2FF0E0EE0FFF1FE45CFF4F50
S1130310A591B4919FB7F894111104C08C91D09514
S1130320D82302C0EC91DE2BDC939FBFDF91CF91E9
S10D03301F9108950895F894FFCF7B
S9030000FC
